:020000040800F2
:1000000000280020010E0008A50D0008AB0D000817
:10001000B10D0008B70D0008BD0D0008000000007C
:10002000000000000000000000000000C30D0008F8
:10003000CF0D000800000000DB0D0008E70D0008F0
:10004000490E0008490E0008490E0008490E000834
:10005000490E0008490E0008490E0008490E000824
:10006000490E0008490E0008490E0008490E000814
:10007000490E0008490E0008490E0008490E000804
:10008000490E0008490E0008490E0008490E0008F4
:10009000490E0008490E0008490E0008490E0008E4
:1000A000490E0008490E0008490E0008490E0008D4
:1000B000490E0008490E000800000000490E000823
:1000C000490E00080000000000000000490E000872
:1000D00000000000490E0008490E00080000000062
:1000E000490E0008490E0008490E000800000000F3
:1000F0000000000000000000000000000000000000
:0C01000000000000000000005FF808F1A3
:10010C0010B5054C237833B9044B13B10448AFF345
:10011C0000800123237010BD0C00002000000000A3
:10012C00881C000808B5034B1BB103490348AFF307
:10013C00008008BD0000000010000020881C000892
:10014C0080B582B000AF7860C7F800C07B68092B1F
:10015C0000F2BC8101A252F823F000BF910100080B
:10016C00E5010008390200088D020008E1020008D0
:10017C003503000889030008DD030008310400087A
:10018C008504000800228021D34801F03DF90022AB
:10019C004FF48071D04801F037F900224FF4007110
:1001AC00CD4801F031F900224FF48061CA4801F0CA
:1001BC002BF900224FF40061C74801F025F9002209
:1001CC004FF48051C44801F01FF901224FF4005143
:1001DC00C14801F019F97AE101228021BE4801F0F1
:1001EC0013F900224FF48071BB4801F00DF9002285
:1001FC004FF40071B84801F007F901224FF4806107
:10020C00B54801F001F901224FF40061B24801F048
:10021C00FBF801224FF48051AF4801F0F5F80122B0
:10022C004FF40051AC4801F0EFF850E1002280216E
:10023C00A94801F0E9F800224FF48071A64801F0BA
:10024C00E3F801224FF40071A34801F0DDF800221D
:10025C004FF48061A04801F0D7F800224FF4006100
:10026C009D4801F0D1F801224FF480519A4801F0D9
:10027C00CBF800224FF40051974801F0C5F826E165
:10028C0000228021944801F0BFF800224FF48071C5
:10029C00914801F0B9F800224FF400718E4801F03A
:1002AC00B3F800224FF480618B4801F0ADF80122C5
:1002BC004FF40061884801F0A7F801224FF48051F7
:1002CC00854801F0A1F800224FF40051824801F05A
:1002DC009BF8FCE0012280217F4801F095F8002278
:1002EC004FF480717C4801F08FF800224FF40071BC
:1002FC00794801F089F801224FF48061764801F0C9
:10030C0083F801224FF40061734801F07DF800225C
:10031C004FF48051704801F077F800224FF40051EF
:10032C006D4801F071F8D2E0002280216A4801F09A
:10033C006BF801224FF48071674801F065F80022D8
:10034C004FF40071644801F05FF800224FF48061B3
:10035C00614801F059F801224FF400615E4801F048
:10036C0053F800224FF480515B4801F04DF8002205
:10037C004FF40051584801F047F8A8E000228021C2
:10038C00554801F041F801224FF48071524801F0B8
:10039C003BF800224FF400714F4801F035F8002271
:1003AC004FF480614C4801F02FF800224FF40061AB
:1003BC00494801F029F800224FF48051464801F0D9
:1003CC0023F800224FF40051434801F01DF87EE061
:1003DC0000228021404801F017F800224FF4807170
:1003EC003D4801F011F800224FF400713A4801F039
:1003FC000BF801224FF48061374801F005F8012217
:10040C004FF40061344800F0FFFF01224FF480519B
:10041C00314800F0F9FF01224FF400512E4800F052
:10042C00F3FF54E0002280212B4800F0EDFF002266
:10043C004FF48071284800F0E7FF00224FF4007160
:10044C00254800F0E1FF00224FF48061224800F0C3
:10045C00DBFF00224FF400611F4800F0D5FF0022A3
:10046C004FF480511C4800F0CFFF00224FF4005194
:10047C00194800F0C9FF2AE000228021164800F03C
:10048C00C3FF00224FF48071134800F0BDFF00221F
:10049C004FF40071104800F0B7FF00224FF4806158
:1004AC000D4800F0B1FF01224FF400610A4800F042
:1004BC00ABFF00224FF48051074800F0A5FF00224B
:1004CC004FF40051044800F09FFF00E000BF00BF54
:1004DC000837BD4680BD00BF0008014080B586B01E
:1004EC0000AF07F120037B6100233B610223BB605B
:1004FC000623FB6003237B6000F0A2FC00F076FB7C
:10050C0000F0B0FB3B1D9C4600F0CCF920210648C6
:10051C0000F092FF3B1D9C4600F0D0FA4FF47A702D
:10052C0000F0F0FCF2E700BF0008014080B582B09B
:10053C0000AF7860C7F800C07B68092B00F2A88177
:10054C0001A252F823F000BF7D050008CD0500087C
:10055C001D0600086D060008BD0600080D07000802
:10056C005D070008AD070008FD0700084D080008EE
:10057C0000220221C94800F047FF00220421C7488D
:10058C0000F042FF00220821C44800F03DFF002289
:10059C004FF48051C24800F037FF00224FF4005155
:1005AC00BF4800F031FF00224FF48041BC4800F0FE
:1005BC002BFF01224FF40041B94800F025FF68E100
:1005CC0001220221B54800F01FFF00220421B3488C
:1005DC0000F01AFF00220821B04800F015FF01229C
:1005EC004FF48051AE4800F00FFF01224FF4005140
:1005FC00AB4800F009FF01224FF48041A84800F0FD
:10060C0003FF01224FF40041A54800F0FDFE40E13C
:10061C0000220221A14800F0F7FE002204219F488D
:10062C0000F0F2FE012208219C4800F0EDFE0022B1
:10063C004FF480519A4800F0E7FE00224FF400512D
:10064C00974800F0E1FE01224FF48041944800F0FD
:10065C00DBFE00224FF40041914800F0D5FE18E17A
:10066C00002202218D4800F0CFFE002204218B488D
:10067C0000F0CAFE00220821884800F0C5FE0022C6
:10068C004FF48051864800F0BFFE01224FF4005118
:10069C00834800F0B9FE01224FF48041804800F0FD
:1006AC00B3FE00224FF400417D4800F0ADFEF0E0B7
:1006BC0001220221794800F0A7FE0022042177488C
:1006CC0000F0A2FE00220821744800F09DFE0122D9
:1006DC004FF48051724800F097FE01224FF4005104
:1006EC006F4800F091FE00224FF480416C4800F0FE
:1006FC008BFE00224FF40041694800F085FEC8E0F3
:10070C0000220221654800F07FFE0122042163488B
:10071C0000F07AFE00220821604800F075FE0022ED
:10072C004FF480515E4800F06FFE01224FF40051EF
:10073C005B4800F069FE00224FF48041584800F0FD
:10074C0063FE00224FF40041554800F05DFEA0E02E
:10075C0000220221514800F057FE012204214F488B
:10076C0000F052FE002208214C4800F04DFE002201
:10077C004FF480514A4800F047FE00224FF40051DC
:10078C00474800F041FE00224FF48041444800F0FD
:10079C003BFE00224FF40041414800F035FE78E06A
:1007AC00002202213D4800F02FFE002204213B488C
:1007BC0000F02AFE00220821384800F025FE012214
:1007CC004FF48051364800F01FFE01224FF40051C7
:1007DC00334800F019FE01224FF48041304800F0FC
:1007EC0013FE01224FF400412D4800F00DFE50E0A5
:1007FC0000220221294800F007FE0022042127488C
:10080C0000F002FE00220821244800F0FDFD002229
:10081C004FF48051224800F0F7FD00224FF40051B4
:10082C001F4800F0F1FD00224FF480411C4800F0FD
:10083C00EBFD00224FF40041194800F0E5FD28E0E3
:10084C0000220221154800F0DFFD0022042113488C
:10085C0000F0DAFD00220821104800F0D5FD00223E
:10086C004FF480510E4800F0CFFD01224FF400519F
:10087C000B4800F0C9FD00224FF48041084800F0FD
:10088C00C3FD00224FF40041054800F0BDFD00E01F
:10089C0000BF00BF0837BD4680BD00BF0008014047
:1008AC00000C014080B483B000AFC7F804C000BF97
:1008BC000C37BD4680BC704780B582B000AFC7F81E
:1008CC0004C001220121104800F09EFD00220221EB
:1008DC000D4800F099FD002204210B4800F094FD16
:1008EC0001224021084800F08FFD0022802106489B
:1008FC0000F08AFD00224FF48071034800F084FD63
:10090C0000BF0837BD4680BD000C014080B582B0E9
:10091C0000AFC7F804C000220121104800F074FD9C
:10092C00012202210D4800F06FFD002204210B482A
:10093C0000F06AFD00224021084800F065FD01220C
:10094C008021064800F060FD00224FF480710348BE
:10095C0000F05AFD00BF0837BD4680BD000C0140B9
:10096C0080B582B000AFC7F804C000220121104846
:10097C0000F04AFD002202210D4800F045FD012245
:10098C0004210B4800F040FD00224021084800F0F3
:10099C003BFD00228021064800F036FD01224FF479
:1009AC008071034800F030FD00BF0837BD4680BDA4
:1009BC00000C014080B582B000AFC7F804C0012222
:1009CC000821114800F020FD002210210E4800F0F3
:1009DC001BFD002220210C4800F016FD01224FF4D3
:1009EC000071094800F010FD00224FF480610648A8
:1009FC0000F00AFD00224FF40061034800F004FDF2
:100A0C0000BF0837BD4680BD000C014080B582B0E8
:100A1C0000AFC7F804C000220821114800F0F4FC14
:100A2C00012210210E4800F0EFFC002220210C487E
:100A3C0000F0EAFC00224FF40071094800F0E4FCDD
:100A4C0001224FF48061064800F0DEFC00224FF4D6
:100A5C000061034800F0D8FC00BF0837BD4680BDDC
:100A6C00000C014080B582B000AFC7F804C0002272
:100A7C000821114800F0C8FC002210210E4800F09B
:100A8C00C3FC012220210C4800F0BEFC00224FF4D4
:100A9C000071094800F0B8FC00224FF48061064850
:100AAC0000F0B2FC01224FF40061034800F0ACFCF2
:100ABC0000BF0837BD4680BD000C014090B583B027
:100ACC0000AF6446C7F804C0E368022B2AD0022B9F
:100ADC003ADC002B02D0012B12D035E0A446FFF7F4
:100AEC00EBFEA3685A1EA260A4461846FFF728FB2B
:100AFC00A368002B2ADA0223E3600323A36025E01A
:100B0C00A446FFF703FFA3685A1EA260A44618462A
:100B1C00FFF716FBA368002B1ADA0023E360062309
:100B2C00A36015E0A446FFF71BFFA3685A1EA26042
:100B3C00A4461846FFF704FBA368002B0ADA01232E
:100B4C00E3600223A36005E000BF04E000BF02E005
:100B5C0000BF00E000BF6368022B2AD0022B3ADCF6
:100B6C00002B02D0012B12D035E0A446FFF722FF58
:100B7C0023685A1E2260A4461846FFF7D7FC236848
:100B8C00002B2ADA022363600323236025E0A446AA
:100B9C00FFF73CFF23685A1E2260A4461846FFF755
:100BAC00C5FC2368002B1ADA00236360062323603C
:100BBC0015E0A446FFF756FF23685A1E2260A44690
:100BCC001846FFF7B3FC2368002B0ADA0123636095
:100BDC000223236005E000BF04E000BF02E000BF79
:100BEC0000E000BF00BF0C37BD4690BD80B590B093
:100BFC0000AF07F1180328220021184601F036F83F
:100C0C003B1D00221A605A609A60DA601A61022356
:100C1C00BB610123BB621023FB6200237B6307F1E2
:100C2C001803184600F022FC0346002B01D000F0FC
:100C3C007BF80F237B600023BB600023FB60002349
:100C4C003B6100237B613B1D0021184600F08EFEAA
:100C5C000346002B01D000F067F800BF4037BD46BB
:100C6C0080BD000080B586B000AF07F108030022FC
:100C7C001A605A609A60DA60284B9B69274A43F0E5
:100C8C0004039361254B9B6903F004037B607B6831
:100C9C00224B9B69214A43F0080393611F4B9B69CC
:100CAC0003F008033B603B68002243F6AE711C481E
:100CBC0000F0AAFB00224FF6BF711A4800F0A4FB0B
:100CCC0043F6AE73BB600123FB6000233B61022340
:100CDC007B6107F108031946114800F01BFA4FF627
:100CEC00BF73BB600123FB6000233B6102237B616C
:100CFC0007F1080319460B4800F00CFA4023BB60BF
:100D0C000023FB6000233B6107F1080319460548EB
:100D1C0000F000FA00BF1837BD4680BD001002403D
:100D2C0000080140000C014080B400AF72B600BF57
:100D3C00FEE7000080B485B000AF154B9B69144AE8
:100D4C0043F001039361124B9B6903F00103BB60F9
:100D5C00BB680F4BDB690E4A43F08053D3610C4BDD
:100D6C00DB6903F080537B607B680A4B5B68FB603C
:100D7C00FB6823F0E063FB60FB6843F08063FB607F
:100D8C00044AFB68536000BF1437BD4680BC7047F3
:100D9C00001002400000014080B400AFFEE780B4B8
:100DAC0000AFFEE780B400AFFEE780B400AFFEE713
:100DBC0080B400AFFEE780B400AF00BFBD4680BC7E
:100DCC00704780B400AF00BFBD4680BC704780B494
:100DDC0000AF00BFBD4680BC704780B500AF00F0CF
:100DEC0075F800BF80BD80B400AF00BFBD4680BCAD
:100DFC0070470000FFF7F7FF0B480C490C4A002323
:100E0C0002E0D458C4500433C4188C42F9D3094AB4
:100E1C00094C002301E013600432A242FBD300F022
:100E2C0001FFFFF75BFB7047000000200C00002067
:100E3C00CC1C00080C0000202C000020FEE7000059
:100E4C0080B500AF084B1B68074A43F010031360D2
:100E5C00032000F02BF90F2000F008F8FFF76AFFD1
:100E6C000023184680BD00BF0020024080B582B030
:100E7C0000AF7860124B1A68124B1B7819464FF46E
:100E8C007A73B3FBF1F3B2FBF3F3184600F035F9C8
:100E9C000346002B01D001230EE07B680F2B0AD8F0
:100EAC00002279684FF0FF3000F00BF9064A7B689E
:100EBC001360002300E0012318460837BD4680BDAF
:100ECC0000000020080000200400002080B400AFC7
:100EDC00054B1B781A46054B1B681344034A1360D9
:100EEC0000BFBD4680BC70470800002028000020D1
:100EFC0080B400AF024B1B681846BD4680BC7047DF
:100F0C002800002080B584B000AF7860FFF7F0FFB8
:100F1C00B8607B68FB60FB68B3F1FF3F05D00A4B00
:100F2C001B781A46FB681344FB6000BFFFF7E0FF19
:100F3C000246BB68D31AFA689A42F7D800BF00BFC2
:100F4C001037BD4680BD00BF0800002080B485B0BE
:100F5C0000AF78607B6803F00703FB600C4BDB6829
:100F6C00BB60BA684FF6FF031340BB60FB681A0204
:100F7C00BB68134343F0BF6343F40033BB60044AC4
:100F8C00BB68D36000BF1437BD4680BC704700BF40
:100F9C0000ED00E080B400AF044BDB681B0A03F0EB
:100FAC0007031846BD4680BC704700BF00ED00E04B
:100FBC0080B483B000AF03463960FB7197F90730FA
:100FCC00002B0ADB3B68DAB20C4997F907301201A7
:100FDC00D2B20B4483F800230AE03B68DAB208492A
:100FEC00FB7903F00F03043B1201D2B20B441A76C7
:100FFC0000BF0C37BD4680BC704700BF00E100E06D
:10100C0000ED00E080B489B000AFF860B9607A60A0
:10101C00FB6803F00703FB61FB69C3F10703042BB7
:10102C0028BF0423BB61FB690433062B02D9FB697F
:10103C00033B00E000237B614FF0FF32BB6902FAF7
:10104C0003F3DA43BB681A407B699A404FF0FF31D7
:10105C007B6901FA03F3D9437B680B4013431846B1
:10106C002437BD4680BC704780B582B000AF786035
:10107C007B68013BB3F1807F01D301230FE00A4A67
:10108C007B68013B53600F214FF0FF30FFF790FF5F
:10109C00054B00229A60044B07221A600023184665
:1010AC000837BD4680BD00BF10E000E080B582B0BF
:1010BC0000AF78607868FFF749FF00BF0837BD467E
:1010CC0080BD80B586B000AF0346B9607A60FB7313
:1010DC0000237B61FFF75EFF78617A68B9687869F5
:1010EC00FFF790FF024697F90F3011461846FFF7AD
:1010FC005FFF00BF1837BD4680BD80B582B000AF22
:10110C0078607868FFF7B0FF034618460837BD468D
:10111C0080BD000080B48BB000AF786039600023D4
:10112C007B6200233B6248E101227B6A02FA03F3F3
:10113C00FB613B681B68FA691340BB61BA69FB69C8
:10114C009A4240F037813B685B68A34A93425ED079
:10115C00A14A934275D8A14A934258D09F4A9342D0
:10116C006FD89F4A934252D09D4A934269D89D4A68
:10117C0093424CD09B4A934263D89B4A934246D0AD
:10118C00994A93425DD8122B2AD8122B59D801A216
:10119C0052F823F01B120008F51100080712000882
:1011AC00491200084F1200084F1200084F12000895
:1011BC004F1200084F1200084F1200084F1200087F
:1011CC004F1200084F1200084F1200084F1200086F
:1011DC004F1200084F120008FD11000811120008F0
:1011EC00824A934213D02CE03B68DB683B6229E0D7
:1011FC003B68DB6804333B6224E03B68DB68083304
:10120C003B621FE03B68DB680C333B621AE03B68D7
:10121C009B68002B02D104233B6213E03B689B6864
:10122C00012B05D108233B627B68FA691A6109E03E
:10123C0008233B627B68FA695A6103E000233B6236
:10124C0000E000BFBB69FF2B01D87B6801E07B6825
:10125C0004337B61BB69FF2B02D87B6A9B0002E0E5
:10126C007B6A083B9B003B617B691A680F213B69D9
:10127C0001FA03F3DB431A40396A3B6901FA03F3C1
:10128C001A437B691A603B685B6803F08053002B40
:10129C0000F09080564B9B69554A43F001039361D3
:1012AC00534B9B6903F00103BB60BB68514A7B6ADB
:1012BC009B08023352F82330FB607B6A03F0030374
:1012CC009B000F2202FA03F3DB43FA681340FB6026
:1012DC007B68494A93420DD07B68484A934207D0B9
:1012EC007B68474A934201D1022304E0032302E0C6
:1012FC00012300E000237A6A02F00302920093407B
:10130C00FA681343FB603B497B6A9B080233FA681B
:10131C0041F823203B685B6803F48013002B06D054
:10132C00384B9A683749BB6913438B6006E0354BE1
:10133C009A68BB69DB43334913408B603B685B683D
:10134C0003F40013002B06D02E4BDA682D49BB6931
:10135C001343CB6006E02B4BDA68BB69DB432949AE
:10136C001340CB603B685B6803F40033002B06D062
:10137C00244B5A682349BB6913434B6006E0214B4D
:10138C005A68BB69DB431F4913404B603B685B6881
:10139C0003F48033002B06D01A4B1A681949BB6929
:1013AC0013430B6006E0174B1A68BB69DB43154906
:1013BC0013400B607B6A01337B623B681A687B6A63
:1013CC0022FA03F3002B7FF4AFAE00BF00BF2C3723
:1013DC00BD4680BC704700BF0000321000003110C9
:1013EC00000022100000211000001210000011104B
:1013FC00001002400000014000080140000C0140B8
:10140C00001001400004014080B483B000AF78604C
:10141C000B467B8013467B707B78002B03D07A883D
:10142C007B681A6103E07B881A047B681A6100BF31
:10143C000C37BD4680BC704780B485B000AF786077
:10144C000B467B807B68DB68FB607A88FB6813400B
:10145C001A04FB68D9437B880B401A437B681A61DA
:10146C0000BF1437BD4680BC7047000080B586B005
:10147C0000AF78607B68002B01D101236CE27B68A4
:10148C001B6803F00103002B00F08780924B5B6814
:10149C0003F00C03042B0CD08F4B5B6803F00C0394
:1014AC00082B12D18C4B5B6803F48033B3F5803F6F
:1014BC000BD1894B1B6803F40033002B6CD07B6879
:1014CC005B68002B68D1012346E27B685B68B3F54F
:1014DC00803F06D1804B1B687F4A43F480331360F6
:1014EC002EE07B685B68002B0CD17B4B1B687A4A27
:1014FC0023F480331360784B1B68774A23F48023E2
:10150C0013601DE07B685B68B3F5A02F0CD1724BA8
:10151C001B68714A43F4802313606F4B1B686E4A3F
:10152C0043F4803313600BE06B4B1B686A4A23F463
:10153C0080331360684B1B68674A23F48023136065
:10154C007B685B68002B13D0FFF7D2FC386108E096
:10155C00FFF7CEFC02463B69D31A642B01D9032357
:10156C00FAE15D4B1B6803F40033002BF0D014E060
:10157C00FFF7BEFC386108E0FFF7BAFC02463B6996
:10158C00D31A642B01D90323E6E1534B1B6803F4F4
:10159C000033002BF0D100E000BF7B681B6803F028
:1015AC000203002B63D04C4B5B6803F00C03002B45
:1015BC000BD0494B5B6803F00C03082B1CD1464B3A
:1015CC005B6803F48033002B16D1434B1B6803F08C
:1015DC000203002B05D07B681B69012B01D0012372
:1015EC00BAE13D4B1B6823F0F8027B685B69DB00BA
:1015FC00394913430B603AE07B681B69002B20D000
:10160C00364B01221A60FFF773FC386108E0FFF7D4
:10161C006FFC02463B69D31A022B01D903239BE1D1
:10162C002D4B1B6803F00203002BF0D02A4B1B68D8
:10163C0023F0F8027B685B69DB00274913430B60DE
:10164C0015E0264B00221A60FFF752FC386108E0C7
:10165C00FFF74EFC02463B69D31A022B01D9032338
:10166C007AE11D4B1B6803F00203002BF0D17B6861
:10167C001B6803F00803002B3AD07B689B69002B96
:10168C0019D0174B01221A60FFF732FC386108E0C1
:10169C00FFF72EFC02463B69D31A022B01D9032318
:1016AC005AE10D4B5B6A03F00203002BF0D00120D2
:1016BC0000F09AFA1CE00A4B00221A60FFF718FCA3
:1016CC0038610FE0FFF714FC02463B69D31A022B7A
:1016DC0008D9032340E100BF001002400000424241
:1016EC00800442429E4B5B6A03F00203002BE9D15B
:1016FC007B681B6803F00403002B00F0A68000231A
:10170C00FB75974BDB6903F08053002B0DD1944B89
:10171C00DB69934A43F08053D361914BDB6903F04F
:10172C008053BB60BB680123FB758E4B1B6803F4B5
:10173C008073002B18D18B4B1B688A4A43F480733F
:10174C001360FFF7D5FB386108E0FFF7D1FB0246C9
:10175C003B69D31A642B01D90323FDE0814B1B6831
:10176C0003F48073002BF0D07B68DB68012B06D16F
:10177C007B4B1B6A7A4A43F0010313622DE07B68B2
:10178C00DB68002B0CD1764B1B6A754A23F00103E6
:10179C001362734B1B6A724A23F0040313621CE03E
:1017AC007B68DB68052B0CD16D4B1B6A6C4A43F0D4
:1017BC00040313626A4B1B6A694A43F00103136208
:1017CC000BE0674B1B6A664A23F001031362644B00
:1017DC001B6A634A23F0040313627B68DB68002BEB
:1017EC0015D0FFF785FB38610AE0FFF781FB024655
:1017FC003B69D31A41F28832934201D90323ABE0FF
:10180C00574B1B6A03F00203002BEED014E0FFF7DA
:10181C006FFB38610AE0FFF76BFB02463B69D31A9A
:10182C0041F28832934201D9032395E04C4B1B6A59
:10183C0003F00203002BEED1FB7D012B05D1484BAD
:10184C00DB69474A23F08053D3617B68DB69002B4B
:10185C0000F08180424B5B6803F00C03082B61D0D5
:10186C007B68DB69022B46D13F4B00221A60FFF7E5
:10187C003FFB386108E0FFF73BFB02463B69D31A9C
:10188C00022B01D9032367E0354B1B6803F000736F
:10189C00002BF0D17B681B6AB3F5803F08D1304B2D
:1018AC005B6823F400327B689B682D4913434B60C3
:1018BC002B4B5B6823F474127B68196A7B685B6A38
:1018CC000B43274913434B60274B01221A60FFF748
:1018DC000FFB386108E0FFF70BFB02463B69D31A9C
:1018EC00022B01D9032337E01D4B1B6803F0007357
:1018FC00002BF0D02FE01C4B00221A60FFF7F8FAF7
:10190C00386108E0FFF7F4FA02463B69D31A022B60
:10191C0001D9032320E0124B1B6803F00073002B4A
:10192C00F0D118E07B68DB69012B01D1012313E0B6
:10193C000B4B5B68FB60FB6803F480327B681B6AB3
:10194C009A4206D1FB6803F470127B685B6A9A4278
:10195C0001D0012300E0002318461837BD4680BD96
:10196C0000100240007000406000424280B584B01C
:10197C0000AF786039607B68002B01D10123D0E087
:10198C006A4B1B6803F007033A689A4210D9674BFD
:10199C001B6823F0070265493B6813430B60634BDC
:1019AC001B6803F007033A689A4201D00123B8E0A0
:1019BC007B681B6803F00203002B20D07B681B683C
:1019CC0003F00403002B05D0594B5B68584A43F4D1
:1019DC00E06353607B681B6803F00803002B05D0A1
:1019EC00534B5B68524A43F460535360504B5B68F3
:1019FC0023F0F0027B689B684D4913434B607B6876
:101A0C001B6803F00103002B40D07B685B68012B43
:101A1C0007D1474B1B6803F40033002B15D101236E
:101A2C007FE07B685B68022B07D1414B1B6803F09E
:101A3C000073002B09D1012373E03D4B1B6803F0AD
:101A4C000203002B01D101236BE0394B5B6823F0BF
:101A5C0003027B685B68364913434B60FFF748FA17
:101A6C00F8600AE0FFF744FA0246FB68D31A41F229
:101A7C008832934201D9032353E02D4B5B6803F06A
:101A8C000C027B685B689B009A42EBD1274B1B686E
:101A9C0003F007033A689A4210D2244B1B6823F0D8
:101AAC00070222493B6813430B60204B1B6803F071
:101ABC0007033A689A4201D0012332E07B681B6825
:101ACC0003F00403002B08D0194B5B6823F4E0628D
:101ADC007B68DB68164913434B607B681B6803F01B
:101AEC000803002B09D0124B5B6823F460527B680F
:101AFC001B69DB000E4913434B6000F021F80246D2
:101B0C000B4B5B681B0903F00F030A49CB5C22FAF1
:101B1C0003F3094A1360094B1B681846FFF7A6F933
:101B2C00002318461037BD4680BD00BF0020024080
:101B3C0000100240A01C000800000020040000203F
:101B4C0080B487B000AF0023FB600023BB60002390
:101B5C007B6100237B6000233B611E4B5B68FB6059
:101B6C00FB6803F00C03042B02D0082B03D027E0F6
:101B7C00194B3B6127E0FB689B0C03F00F03174AE2
:101B8C00D35C7B60FB6803F48033002B10D0114BCB
:101B9C005B685B0C03F00103114AD35CBB607B6890
:101BAC000D4A02FB03F2BB68B2FBF3F37B6104E06A
:101BBC007B680C4A02FB03F37B617B693B6102E0AF
:101BCC00054B3B6100BF3B6918461C37BD4680BCCA
:101BDC00704700BF0010024000127A00B01C0008D1
:101BEC00C01C000800093D0080B485B000AF7860CF
:101BFC000A4B1B680A4AA2FB03235B0A7A6802FBA6
:101C0C0003F3FB6000BFFB685A1EFA60002BF9D18E
:101C1C0000BF00BF1437BD4680BC704700000020D9
:101C2C00D34D621070B500260C4D0D4C641BA410E6
:101C3C00A64209D100F022F800260A4D0A4C641B7A
:101C4C00A410A64205D170BD55F8043B9847013647
:101C5C00EEE755F8043B98470136F2E7C41C000840
:101C6C00C41C0008C41C0008C81C0008034602441D
:101C7C00934200D1704703F8011BF9E7F8B500BF98
:101C8C00F8BC08BC9E467047F8B500BFF8BC08BC51
:041C9C009E467047A9
:101CA000000000000000000001020304060708090C
:101CB00002030405060708090A0B0C0D0E0F10108D
:041CC000010200001D
:041CC40031010008E2
:041CC8000D01000802
:0C1CCC0000127A0010000000010000006F
:0400000508000E01E0
:00000001FF
